:100000000C9434000C9449000C9449000C94490061
:100010000C9449000C9449000C9449000C9449003C
:100020000C9449000C9449000C9449000C9449002C
:100030000C9449000C9449000C9449000C9449001C
:100040000C9449000C9449000C9449000C9449000C
:100050000C9449000C9449000C9449000C944900FC
:100060000C9449000C94490011241FBECFEFD8E036
:10007000DEBFCDBF11E0A0E0B1E0E0EBF5E002C0F3
:1000800005900D92A031B107D9F70E9451000C9450
:10009000D6020C940000892B11F429980895299A0E
:1000A0000895CF93DF9300D000D01F92CDB7DEB775
:1000B000219A0E94C9010E94A101609100017091E2
:1000C000010181E290E00E94130237C0823791055E
:1000D00009F45EC08737910581F5209100013091C8
:1000E000010141E050E061E070E0CE0101960E9424
:1000F0004302209100013091010141E050E064E0B1
:1001000070E0CE0102960E9443024A815B816C81BD
:100110007D8189810E94E800609100017091010158
:100120008BE290E00E94130208C060910001709180
:1001300001018BE290E00E941302809100019091F6
:1001400001010E94D70180379105A9F00CF0BECFC4
:100150008F33910551F38035910579F790E080E078
:100160000E944B0060910001709101018BE290E0D0
:100170000E941302E2CF81E090E00E944B00609168
:100180000001709101018BE290E00E941302D5CF33
:10019000209100013091010141E050E061E070E008
:1001A000CE0101960E94430289810E9444016A8324
:1001B0007B838C839D83209100013091010141E07C
:1001C00050E064E070E0CE0102960E946F02B5CF6D
:1001D000569A5E98000000005E9A9AB1997F9AB98B
:1001E00097E015C0569A5E980000000000000000DD
:1001F00000000000000000000000000000000000FF
:100200005E9A2AB1297F2AB9880F915059F086FF4A
:10021000E9CF569A5E98000000005E9A2AB1297FC5
:100220002AB9F2CF569A5E98000000005E9A8AB111
:10023000897F8AB980E218C0569A5E980000000053
:1002400000000000000000000000000000000000AE
:10025000000000005E9A9AB1997F9AB9440F551F29
:10026000661F771F815059F0772334F7569A5E98AE
:10027000000000005E9A9AB1997F9AB9EFCF85E3AA
:100280008A95F1F700000895569A5E9800000000E4
:100290005E9A9AB1997F9AB997E015C0569A5E987E
:1002A000000000000000000000000000000000004E
:1002B00000000000000000005E9A2AB1297F2AB9E0
:1002C000880F915059F086FFE9CF569A5E9800004A
:1002D00000005E9A2AB1297F2AB9F2CF569A5E9819
:1002E000000000000000000000000000000000000E
:1002F00000000000000000005E9A8AB1897F8AB980
:1003000020E280E090E0DC0102C0215099F0880FEB
:10031000991FAA1FBB1F569A5E985E9A56980000B6
:1003200000000000000039B14E9BFECF36FFEDCF3C
:100330008160EBCF25E32A95F1F70000BC01CD01E8
:1003400008955E9A569A8FE19EE40197F1F700C0F6
:1003500000005E989FEF29EF80E0915020408040A0
:10036000E1F700C000005E9A56980895E0ECF0E0D6
:10037000908195FFFDCF8093C60090E080E00895C6
:10038000E0ECF0E080818823ECF78091C60090E0FB
:100390000895E0ECF0E080818260808380E18093CA
:1003A000C400E1ECF0E08081886180830895CF9300
:1003B000DF93EC012B8120FF1AC026FF0CC02F7B9E
:1003C0002B838E819F8101969F838E838A8190E00B
:1003D000DF91CF91089522FF18C0E881F9818081D3
:1003E000082E000C990B009729F420622B838FEFC5
:1003F0009FEFEECF3196F983E8832E813F812F5F07
:100400003F4F3F832E839927E3CFEA85FB850995EC
:1004100097FFF3CF2B81019621F080E2822B8B8313
:10042000E6CF80E1FBCF0F931F93CF93DF93182F7D
:10043000092FEB018B8181FD09C01FEF0FEF812F89
:10044000902FDF91CF911F910F91089582FF14C0DB
:100450002E813F818C819D81281739073CF4E881EA
:10046000F981CF0101969983888310838E819F81C2
:1004700001969F838E83E3CFE885F985812F0995C7
:10048000892BA1F3DACFB0E0A0E0E9E4F2E00C942C
:10049000A5025B014A017901F9012381D0E0C0E0A6
:1004A00020FF17C0C815D905A1F08C016C01CA0C3A
:1004B000DB1C09C0C7010E94D7018F3F980749F094
:1004C000F80181938F01C8010C151D0599F721963C
:1004D000E9CFCE01CDB7DEB7ECE00C94C102B0E0BD
:1004E000A0E0E5E7F2E00C94A5025B014A01790186
:1004F000D90113962C91D0E0C0E021FF1AC0C81595
:10050000D905B9F08C016C01CA0CDB1C0CC00F5F63
:100510001F4FD7011896ED91FC91B701DC018C912A
:100520000995892B31F4C8010C151D0581F7219619
:10053000E6CFCE01CDB7DEB7ECE00C94C1022F922E
:100540003F924F925F926F927F928F929F92AF9263
:10055000BF92CF92DF92EF92FF920F931F93CF93B0
:10056000DF93CDB7DEB7CA1BDB0B0FB6F894DEBF47
:100570000FBECDBF09942A88398848885F846E846D
:100580007D848C849B84AA84B984C884DF80EE80B7
:10059000FD800C811B81AA81B981CE0FD11D0FB6C0
:1005A000F894DEBF0FBECDBFED010895F894FFCFE4
:1005B00002010000000300000000B601C0010000BD
:00000001FF
