:1000000012C022C021C020C01FC01EC01DC01CC005
:100010001BC01AC019C018C017C016C015C014C024
:1000200013C012C011C011241FBECFEDCDBF10E010
:10003000A0E6B0E0E4E0F5E002C005900D92A03744
:10004000B107D9F708D05CC2DBCF892B11F4C19876
:100050000895C19A0895CF93DF93CDB7DD27C5509A
:10006000CDBFB99A56D135D16091600070916100D1
:1000700081E290E091D132C08237910509F453C0FA
:100080008737910559F5209160003091610041E07A
:1000900050E061E070E0CE010196AED120916000A9
:1000A0003091610041E050E064E070E0CE010296E2
:1000B000A3D14A815B816C817D81898151D060911E
:1000C0006000709161008BE290E066D107C06091A2
:1000D0006000709161008BE290E05ED180916000E1
:1000E000909161001DD18037910591F02CF68F33EE
:1000F000910569F38035910589F790E080E0A5DFEF
:1001000060916000709161008BE290E045D1E6CF94
:1001100081E090E09ADF60916000709161008BE275
:1001200090E03AD1DBCF209160003091610041E056
:1001300050E061E070E0CE0101965ED189816CD023
:100140006A837B838C839D83209160003091610062
:1001500041E050E064E070E0CE01029676D1BECF7F
:100160008E9A969800000000969A91B3997F91BB61
:1001700097E015C08E9A96980000000000000000DD
:10018000000000000000000000000000000000006F
:10019000969A21B3297F21BB880F915059F086FF91
:1001A000E9CF8E9A969800000000969A21B3297F95
:1001B00021BBF2CF8E9A969800000000969A81B3E8
:1001C000897F81BB80E218C08E9A9698000000005B
:1001D000000000000000000000000000000000001F
:1001E00000000000969A91B3997F91BB440F551F70
:1001F000661F771F815059F0772334F78E9A9698AF
:1002000000000000969A91B3997F91BBEFCF85E3F0
:100210008A95F1F7000008958E9A969800000000E4
:10022000969A91B3997F91BB97E015C08E9A969854
:1002300000000000000000000000000000000000BE
:100240000000000000000000969A21B3297F21BB26
:10025000880F915059F086FFE9CF8E9A969800004A
:100260000000969A21B3297F21BBF2CF8E9A9698EF
:10027000000000000000000000000000000000007E
:100280000000000000000000969A81B3897F81BBC6
:1002900020E280E090E0DC0102C0215099F0880F5C
:1002A000991FAA1FBB1F8E9A9698969A8E98000047
:1002B00000000000000030B3869BFECF36FFEDCF7C
:1002C0008160EBCF25E32A95F1F70000BC01CD0159
:1002D0000895969A8E9A8FE19EE40197F1F700C0F7
:1002E000000096989FEF29EF80E0915020408040D9
:1002F000E1F700C00000969A8E9808955D9BFECFAE
:100300008CB990E080E008955F9BFECF8CB190E0C7
:100310000895599A80E189B98AB188618AB90895A6
:10032000CF93DF93EC012B8120FF1AC026FF0CC076
:100330002F7B2B838E819F8101969F838E838A8161
:1003400090E0DF91CF91089522FF18C0E881F981F4
:100350008081082E000C990B009729F420622B83D2
:100360008FEF9FEFEECF3196F983E8832E813F81A7
:100370002F5F3F4F3F832E839927E3CFEA85FB858D
:10038000099597FFF3CF2B81019621F080E2822B14
:100390008B83E6CF80E1FBCF0F931F93CF93DF9347
:1003A000182F092FEB018B8181FD09C01FEF0FEF83
:1003B000812F902FDF91CF911F910F91089582FF90
:1003C00014C02E813F818C819D81281739073CF410
:1003D000E881F981CF0101969983888310838E810A
:1003E0009F8101969F838E83E3CFE885F985812FD6
:1003F0000995892BA1F3DACFB0E0A0E0E1E0F2E0CB
:1004000058C05B014A017901F9012381D0E0C0E0C5
:1004100020FF16C0C815D90599F08C016C01CA0CD3
:10042000DB1C08C0C7017CDF8F3F980749F0F8014B
:1004300081938F01C8010C151D05A1F72196EACF04
:10044000CE01CDB7DD27ECE04BC0B0E0A0E0EAE2A2
:10045000F2E02FC05B014A017901D90113962C917A
:10046000D0E0C0E021FF1AC0C815D905B9F08C0151
:100470006C01CA0CDB1C0CC00F5F1F4FD701189614
:10048000ED91FC91B701DC018C910995892B31F438
:10049000C8010C151D0581F72196E6CFCE01CDB719
:1004A000DD27ECE01DC02F923F924F925F926F923A
:1004B0007F928F929F92AF92BF92CF92DF92EF92F4
:1004C000FF920F931F93CF93DF93CDB7CA1BCDBF7E
:1004D000DD2709942A88398848885F846E847D8462
:1004E0008C849B84AA84B984C884DF80EE80FD80DC
:1004F0000C811B81AA81D981CE0FCDBFCA2F08954F
:04050000F894FFCF9D
:10050400620000000003000000007E01840100007E
:00000001FF
